:100000000C9462000C948A000C948A000C948A0070
:100010000C948A000C948A000C948A000C948A0038
:100020000C948A000C948A000C948A000C948A0028
:100030000C948A000C948A000C948A000C948A0018
:100040000C9458030C948A000C9426030C9400031F
:100050000C948A000C948A000C948A000C948A00F8
:100060000C948A000C948A000000000024002700F1
:100070002A0000000000250028002B0000000000DE
:1000800023002600290004040404040404040202DA
:100090000202020203030303030301020408102007
:1000A0004080010204081020010204081020000012
:1000B0000008000201000003040700000000000027
:1000C0000000A20311241FBECFEFD8E0DEBFCDBFDA
:1000D00011E0A0E0B1E0E2E7FCE002C005900D9283
:1000E000A034B107D9F722E0A0E4B1E001C01D922D
:1000F000A735B207E1F710E0C2E6D0E004C02197CF
:10010000FE010E942C06C136D107C9F70E943104B6
:100110000C9437060C94000096E0899FD0011124BE
:10012000A851BE4F90967C936E935F9791E0919605
:100130009C93919790915402E0915502F091560250
:10014000992339F0309751F0811108C08091040251
:1001500004C0309719F05C968C9109940895CF9261
:10016000DF92EF92FF920F931F93CF93DF936C0177
:100170007A018B01C0E0D0E0CE15DF0589F0D8010F
:100180006D918D01D601ED91FC910190F081E02DF2
:10019000C6010995892B11F47E0102C02196ECCF8E
:1001A000C701DF91CF911F910F91FF90EF90DF90EA
:1001B000CF900895089580E090E00895FC01538D5C
:1001C000448D252F30E0842F90E0821B930B541731
:1001D00010F0CF96089501970895FC01918D828DBE
:1001E000981761F0828DDF01A80FB11D5D968C918B
:1001F000928D9F5F9F73928F90E008958FEF9FEF96
:100200000895FC01918D828D981731F0828DE80F51
:10021000F11D858D90E008958FEF9FEF0895FC010B
:10022000918D228D892F90E0805C9F4F821B9109D8
:100230008F73992708958BE491E00E940F0121E0CC
:10024000892B09F420E0822F0895FC01848DDF01C1
:10025000A80FB11DA35ABF4F2C91848D90E0019639
:100260008F739927848FA689B7892C93A089B18928
:100270008C9180648C93938D848D981306C0028832
:10028000F389E02D80818F7D80830895EF92FF9226
:100290000F931F93CF93DF93EC0181E0888F9B8DA9
:1002A0008C8D981305C0E889F989808185FD24C06B
:1002B000F62E0B8D10E00F5F1F4F0F731127E02EEE
:1002C0008C8DE8120CC00FB607FCFACFE889F989CB
:1002D000808185FFF5CFCE010E942501F1CF8B8D66
:1002E000FE01E80FF11DE35AFF4FF0820B8FEA8900
:1002F000FB898081806207C0EE89FF896083E8897D
:10030000F98980818064808381E090E0DF91CF91E2
:100310001F910F91FF90EF900895CF93DF93EC0121
:10032000888D8823C9F0EA89FB89808185FD05C015
:10033000A889B9898C9186FD0FC00FB607FCF5CF4F
:10034000808185FFF2CFA889B9898C9185FFEDCF97
:10035000CE010E942501E7CFDF91CF91089580E083
:1003600090E0892B29F00E941B0181110C94000060
:100370000895833081F028F4813099F08230A1F023
:1003800008958730A9F08830B9F08430D1F4809195
:1003900080008F7D03C0809180008F7780938000E4
:1003A000089584B58F7702C084B58F7D84BD08958C
:1003B0008091B0008F7703C08091B0008F7D8093D3
:1003C000B0000895CF93DF93282F30E0F901E25574
:1003D000FF4F8491F901E656FF4FD491F901EA5796
:1003E000FF4FC491CC2391F081110E94B901EC2FF1
:1003F000F0E0EE0FFF1FE458FF4FA591B491EC9190
:10040000ED2381E090E021F480E002C080E090E004
:10041000DF91CF910895862F0C94E2011F93CF9323
:10042000DF93282F30E0F901E255FF4F8491F90165
:10043000E656FF4FD491F901EA57FF4FC491CC2300
:10044000C9F0162F81110E94B901EC2FF0E0EE0FD8
:10045000FF1FEE58FF4FA591B4918FB7F89411117B
:1004600005C09C91ED2FE095E92302C0EC91ED2BA6
:10047000EC938FBFDF91CF911F910895862F642F4A
:100480000C940E02CF93DF9390E0FC01E656FF4FF1
:100490002491FC01EA57FF4F8491882361F190E099
:1004A000880F991FFC01E859FF4FC591D491FC01B9
:1004B000EE58FF4FA591B491611109C09FB7F89410
:1004C0008881209582238883EC912E230BC0623093
:1004D00061F49FB7F8943881822F809583238883B5
:1004E000EC912E2B2C939FBF06C08FB7F894E88118
:1004F0002E2B28838FBFDF91CF910895862F642FF5
:100500000C9442022FB7F894609145017091460116
:1005100080914701909148012FBF08950F931F9339
:10052000CF93DF93C82FD62F86E0C89FF001112408
:10053000E851FE4F11A2878D90A181309105F1F015
:100540001CF4892B49F043C082309105A9F103972F
:10055000F1F560E070E034C06623C9F161E070E05D
:100560008C2F0E948C000E94820260934002709344
:100570004102809342029093430229C00E9482026A
:1005800000914002109141022091420230914302B9
:10059000AB01BC01401B510B620B730B80915202EB
:1005A00090915302A0E0B0E084179507A607B70723
:1005B00018F462E070E004C0D11109C063E070E09B
:1005C0008C2FDF91CF911F910F910C948C00DF91B4
:1005D000CF911F910F910895009769F0FC01019050
:1005E0000020E9F73197AF01481B590BBC018BE4A0
:1005F00091E00C94AF0080E090E008950E943206F4
:100600001F920F920FB60F9211242F933F934F9387
:100610005F936F937F938F939F93AF93BF93EF936A
:10062000FF938BE491E00E942501FF91EF91BF9130
:10063000AF919F918F917F916F915F914F913F917A
:100640002F910F900FBE0F901F9018951F920F9231
:100650000FB60F9211242F938F939F93EF93FF93D5
:10066000E0915B01F0915C018081E0916101F0918A
:10067000620182FD12C09081809164018F5F8F734F
:1006800020916501821751F0E0916401F0E0E55B93
:10069000FE4F958F8093640101C08081FF91EF919F
:1006A0009F918F912F910F900FBE0F901F901895D3
:1006B0001F920F920FB60F9211242F933F938F9397
:1006C0009F93AF93BF938091450190914601A09174
:1006D0004701B09148013091440123E0230F2D37A9
:1006E00020F40196A11DB11D05C026E8230F029636
:1006F000A11DB11D209344018093450190934601B3
:10070000A0934701B093480180914001909141012D
:10071000A0914201B09143010196A11DB11D8093AA
:10072000400190934101A0934201B0934301BF91D6
:10073000AF919F918F913F912F910F900FBE0F908E
:100740001F90189510924E0110924D0188EE93E083
:10075000A0E0B0E080934F0190935001A09351012D
:10076000B09352018CE191E090934C0180934B0146
:1007700085EC90E0909358018093570184EC90E0D1
:1007800090935A018093590180EC90E090935C0122
:1007900080935B0181EC90E090935E0180935D011A
:1007A00082EC90E09093600180935F0186EC90E092
:1007B000909362018093610110926401109265012F
:1007C00010926601109267011092EA011092EE01F8
:1007D0001092ED011092EF018EE291E09093E90109
:1007E0008093E80180E090E0FC01E851FE4F148E18
:1007F00010A2178E11A206968C339105A9F784E0FA
:1008000091E090934B0280934A0280E091E09093B4
:100810004D0280934C0284E080934E0280934F02FD
:1008200088E091E090934902809348028AE090E04A
:10083000909351028093500284EF91E09093530281
:100840008093520210925602109255021092440266
:1008500010924502109246021092470210925402E2
:100860000895789484B5826084BD84B5816084BD28
:1008700085B5826085BD85B5816085BD80916E003E
:10088000816080936E00109281008091810082606F
:1008900080938100809181008160809381008091AC
:1008A00080008160809380008091B100846080939B
:1008B000B1008091B00081608093B00080917A0097
:1008C000846080937A0080917A00826080937A00BD
:1008D00080917A00816080937A0080917A008068AC
:1008E00080937A001092C100E0915B01F0915C016D
:1008F00082E08083E0915701F09158011082E091ED
:100900005901F0915A018FEC808310926301E091BC
:100910005F01F091600186E08083E0915D01F091DC
:100920005E01808180618083E0915D01F0915E01D4
:10093000808188608083E0915D01F0915E0180811B
:1009400080688083E0915D01F0915E0180818F7D00
:100950008083412C512C32014394CC24CA94DC2C4A
:1009600081E0809354020E9482020091440210911F
:1009700045022091460230914702AB01BC01401B69
:10098000510B620B730B8091500290915102A0E0C9
:10099000B0E084179507A607B70708F007C1C0E0C5
:1009A00080914E02C81760F4E0914A02F0914B0228
:1009B000EC0FF11D62E080810E944202CF5FF0CF18
:1009C000912C80914F02981608F05FC0092D10E01D
:1009D000E0914C02F0914D02E00FF11F61E0808147
:1009E0000E944202E0914C02F0914D02E00FF11F93
:1009F00060E080810E940E02D301C201092C04C074
:100A0000880F991FAA1FBB1F0A94D2F75C017C01B3
:100A1000E094F094812C80914E028816F8F4C82D51
:100A2000D0E0E0914A02F0914B02EC0FFD1F808173
:100A30000E94E2012496CC0FDD1FC851DE4F892BA6
:100A400029F4888199818A299B2904C08881998108
:100A50008E219F21998388838394DDCFE0914C027E
:100A6000F0914D02E00FF11F61E080810E940E02C3
:100A700080914C0290914D02FC01E00FF11F60E06B
:100A800080810E94420293949CCFE4E0F2E0838153
:100A90009481892B21F41082D282C18215823696EC
:100AA00082E0E034F80799F710E006E080914E020A
:100AB000181708F052C0F12CC12FD0E0CC0FDD1F69
:100AC000C051DE4F20914F02F21608F044C06881F9
:100AD00079810F2C02C0769567950A94E2F76170D0
:100AE0007727129F900111242F0D311DE0914802AC
:100AF000F0914902E20FF31FA081E8EEF1E080E0FF
:100B0000458D568D4217530711F461701AC08F5FDF
:100B100036968A30A9F7672BE1F0E4E0F2E080E056
:100B200090E04081411110C0089FF001099FF00D35
:100B30001124E851FE4FA48F368F258F10A2178EF7
:100B400061E00E948E0205C0019636968A309105BA
:100B500041F7F394B7CF1F5FA9CF80E090E0C0E0EA
:100B6000FC01E851FE4F21A12111C1E006968C3312
:100B70009105B1F70E94820260934402709345028E
:100B80008093460290934702CC2381F08091090222
:100B9000882361F0809107029091080281309105CD
:100BA00029F4C0910402C11104C053C01092540230
:100BB00050C0C13339F490934A018093490184E3D2
:100BC00091E030C0C23339F490934A0180934901D7
:100BD00086E391E027C0C33339F490934A018093B0
:100BE000490188E391E01EC0C43339F490934A016F
:100BF000809349018AE391E015C0C53349F481E04F
:100C000090E090934A01809349018CE391E00AC0FF
:100C1000C63351F481E090E090934A0180934901FA
:100C20008EE391E00E94EC028091490190914A018B
:100C3000892B59F4E0914B01F0914C010190F08126
:100C4000E02D6C2F8BE491E0099510924A011092EF
:100C500049010E94AF0184CEEE0FFF1F0590F49171
:100C6000E02D099481E090E0F8940C943706F89414
:020C7000FFCFB4
:100C7200090807060D0C0B0A3738392F3435367838
:100C82003132332D2A30232B000000004601AF0001
:100C9200DE008D010F01ED000101000000007E0267
:100CA2003E020B02310032003300340035003600C0
:00000001FF
